:020000040800F2
:1000000060090020E541000843020008450200089D
:10001000490200084D0200085102000800000000DB
:100020000000000000000000000000005502000871
:100030005702000800000000590200085B02000897
:10004000FF410008FF410008FF410008FF41000890
:10005000FF410008FF410008FF410008FF41000880
:10006000FF410008FF410008FF410008FF41000870
:10007000FF410008FF410008FF410008FF41000860
:10008000FF410008FF410008FF410008FF41000850
:10009000FF410008FF410008FF410008FF41000840
:1000A000FF410008773D0008FF410008FF410008BC
:1000B000FF410008FF410008F5640008FF41000807
:1000C000FF410008FF410008FF410008FF41000810
:1000D000FF410008F95D0008FF410008FF410008EA
:1000E000FF410008FF410008FF410008FF410008F0
:1000F000FF410008FF410008FF410008FF410008E0
:10010000FF410008FF410008FF410008FF410008CF
:10011000FF410008FF410008FF410008FF410008BF
:10012000FF410008FF410008FF410008FF410008AF
:1001300000F002F800F076F80AA090E8000C824483
:100140008344AAF10107DA4501D100F06BF8AFF260
:10015000090EBAE80F0013F0010F18BFFB1A43F0A5
:100160000103184794AC0000B4AC00000A444FF0FF
:10017000000C10F8013B13F0070408BF10F8014B06
:100180001D1108BF10F8015B641E05D010F8016B4B
:10019000641E01F8016BF9D113F0080F1EBF10F8AF
:1001A000014BAD1C0C1B09D16D1E58BF01F801CBD2
:1001B000FAD505E014F8016B01F8016B6D1EF9D555
:1001C0009142D6D37047000000230024002500266A
:1001D000103A28BF78C1FBD8520728BF30C148BFAA
:1001E0000B607047662909F01886642906F080873D
:1001F000752906F07D87782906F0B687632907F010
:10020000CD83732907F0D283002070471FB507F014
:1002100005FC04000020002108F01EFDE0601FBD69
:1002200010B510BD07F03EFD1146FFF7EFFF00F0DF
:1002300005F907F05CFD03B4FFF7F2FF03BC05F01E
:100240007DFD704700BFFEE700BFFEE700BFFEE791
:1002500000BFFEE770477047704770470CB500203D
:10026000019000906C48006840F480306A49086052
:1002700000BF6948006800F4003000900198401CFD
:100280000190009818B90198B0F5A06FF1D16248BB
:10029000006800F4003010B10120009001E000205F
:1002A00000900098012843D15C48006840F010009D
:1002B0005A4908600846006820F0030008600846B4
:1002C000006840F0020008605348406852494860A6
:1002D0000846406848600846406840F480604860CE
:1002E0000846406820F47C1048600846406840F4A6
:1002F000E81048600846006840F08070086000BF61
:100300004548006800F000700028F9D04248406875
:1003100020F00300404948600846406840F0020071
:10032000486000BF3C48406800F00C000828F9D144
:100330000CBD10B5FFF792FF10BD10B53648006830
:1003400040F00100344908600846406834490840DC
:100350003149486008460068324908402E49086023
:100360000846006820F4802008600846406820F4B1
:10037000FE0048604FF41F008860FFF7DAFF4FF07F
:1003800000602949086010BD10B50021002000223E
:10039000214B5B6803F00C0121B1042906D0082928
:1003A00028D107E0214B224C236027E01F4B204C33
:1003B000236023E0184B5B6803F47010164B5B68F6
:1003C00003F48032022303EB904022B9194B4343DC
:1003D000174C23600DE0104B5B6803F4003323B12E
:1003E000144B4343124C236003E0104B4343104C27
:1003F000236003E00D4B0E4C236000BF00BF064B93
:100400005B68C3F303130C4CE15C094B1B68CB40E6
:10041000074C236010BD0000001002400020024085
:100420000000FFF8FFFFF6FE08ED00E000127A0082
:100430000000002000093D00040000201CB505F06C
:100440005BFC05F0EFFB4FF4E13005F086FC03F0B8
:100450001DFA002141F61F4003F0B0FD03F0C8FD76
:1004600003F018FE00F0E7F800201749086005E0E7
:1004700016A006F0E1FDC82005F011FC02F0C7F956
:100480000028F5D14FF47A7003F084FE1AE00020C2
:10049000134908601348006809F020F904460B4628
:1004A00011480068114909682246CDE9001010A0E2
:1004B00006F0C2FD40F6C41005F0F1FB012018491A
:1004C000C1F8A001E3E70000888122420D0A4D50E7
:1004D0005536303530204572726F720D0A000000BB
:1004E000A001214224000020180000201400002058
:1004F000C6BDBAE2C7E3BDC725662020D7F3C2D682
:10050000B1E0C2EBC6F7D6B525642020D3D2C2D65F
:10051000B1E0C2EBC6F7D6B52564200D0A00000095
:100520000000214270B505460C4603F0F0F9D020DA
:1005300003F09BFA03F02CFA18B103F00AFA012039
:1005400070BD284603F091FA03F022FA204603F02A
:100550008CFA03F01DFA18B103F0FBF90120EFE764
:1005600003F0F7F90020EBE770B504460025BC2C3A
:1005700001DB012510E0622C01DB02250CE02A2CB6
:1005800001DB032508E0142C01DB042504E00A2C20
:1005900001DB052500E0062529461A20FFF7C2FFEA
:1005A00070BD70B50446B4F57A7F01DD4FF47A74FE
:1005B000042C00DA04244FF47A7090FBF4F0401E0F
:1005C000C5B229461920FFF7ADFF0546264604EBC4
:1005D000D671C1F34F00FFF7C7FF70BD70B5044679
:1005E00003F095F9D02003F040FA03F0D1F920464A
:1005F00003F03BFA03F0CCF903F089F9D12003F0C2
:1006000034FA03F0C5F9002003F05CFA054603F064
:10061000A0F9284670BD10B50446E006010E1C2066
:10062000FFF780FF10BD10B50446E006010E1B2049
:10063000FFF778FF10BD10B503F050F980216B2053
:10064000FFF770FF642005F02AFB00216B20FFF705
:1006500069FF0120FFF7E7FF0020FFF7DCFFC8205C
:10066000FFF79FFF00213820FFF75CFF00216A2081
:10067000FFF758FF00212320FFF754FF8021372088
:10068000FFF750FF7520FFF7A9FF0446682C0BD138
:1006900001216B20FFF746FF00216C20FFF742FF8E
:1006A000C820FFF77EFF01E0012010BD0020FCE71D
:1006B0002DE9F04106460F4614461D4603F027F982
:1006C000002141EA4601C8B203F0CFF903F060F916
:1006D00020B103F03EF90120BDE8F081384603F077
:1006E000C4F903F055F903F012F9012101EB4601B9
:1006F000C8B203F0BAF903F04BF90DE0012C04D1B4
:10070000002003F0DFF9287003E0012003F0DAF99C
:100710002870601EC4B26D1C002CEFD103F019F9D3
:100720000020D9E72DE9F84F6B46022241216820CD
:10073000FFF7BEFF9DF801009DF8001040EA012080
:100740000FFA80FA504608F0D7FC804600224B4B47
:1007500008F07AFB06464A4A4A4B08F0C5FA0446B6
:1007600008F090FA83464849584609F0E3F90446F0
:1007700009F044F900B2BDE8F88F2DE9FC410446C8
:100780000D4616466B46062243216820FFF790FF70
:100790000746BFB99DF801009DF8001040EA01200E
:1007A00000B220809DF803009DF8021040EA01206D
:1007B00000B228809DF805009DF8041040EA012051
:1007C00000B230803846BDE8FC812DE9FC4104468A
:1007D0000D4616466B4606223B216820FFF768FF50
:1007E0000746BFB99DF801009DF8001040EA0120BE
:1007F00000B220809DF803009DF8021040EA01201D
:1008000000B228809DF805009DF8041040EA012000
:1008100000B230803846BDE8FC812DE9F041054644
:100820000E461746984603F072F8002141EA45014A
:10083000C8B203F01AF903F0ABF820B103F089F85D
:100840000120BDE8F081304603F00FF903F0A0F875
:1008500000240CE018F8040003F007F903F098F8FE
:1008600018B103F076F80120EBE7601CC4B2BC427B
:10087000F0DB03F06EF80020E3E700000040754075
:10088000A4703D0AD74342400000C8420146FE48DA
:10089000407A30B1012808D002280AD0032810D1AC
:1008A0000BE04FF4804008800EE041F69C70088019
:1008B0000AE04FF48050088006E04FF400600880A2
:1008C00002E04FF0FF30704700BFEF48C07C10B12E
:1008D0000888401008800020F5E70146EA48007AC1
:1008E00030B1012807D0022808D003280CD108E035
:1008F000E64808600BE0E648086008E0E548086064
:1009000005E0E548086002E04FF0FF30704700BFA7
:100910000020FBE708B5DC48807A10B94FF0FF30C3
:1009200008BD00200090D84A1268D17BD64A526890
:1009300010786B460122FFF770FF10B14FF0FF30C7
:10094000EEE7D14A12685179CF4A526810786B4667
:100950000122FFF762FF10B14FF0FF30E0E7CA4A13
:1009600012681179C84A526810786B460122FFF765
:1009700054FF10B14FF0FF30D2E7C34890F8240085
:10098000002853D00C200090BF4A12681179BE4A4B
:10099000526810786B460122FFF73FFF10B14FF00D
:1009A000FF30BDE7322005F07AF9C0200090B6484C
:1009B000807A00F0010020B19DF8000040F0200096
:1009C0000090B14A12681179AF4A526810786B46AC
:1009D0000122FFF722FF10B14FF0FF30A0E7AA4835
:1009E000407C10B10220009001E000200090A64A57
:1009F0001268D17BA44A526810786B460122FFF737
:100A00000CFF10B14FF0FF308AE7002000909E4AA3
:100A1000126851799C4A526810786B460122FFF7A0
:100A2000FCFE002855D04FF0FF3079E704200090FD
:100A3000954A12681179944A526810786B460122DF
:100A4000FFF7EBFE10B14FF0FF3069E78E48807C76
:100A500020B98D48807A00F0010010B94020009044
:100A600001E060200090884A12681179864A526835
:100A700010786B460122FFF7D0FE10B14FF0FF3027
:100A80004EE7322005F00BF97F48407C10B1012081
:100A9000009001E0002000907B4A1268D17B7A4AE6
:100AA000526810786B460122FFF7B7FE10B14FF085
:100AB000FF3035E7744A12685179734A52681078EA
:100AC000714B10330122FFF7A8FE10B14FF0FF3039
:100AD00026E7002024E738B504466B4890F8240048
:100AE000C0B114B10220009001E000200090664ADD
:100AF0001268D17B644A526810786B460122FFF776
:100B00008CFE10B14FF0FF3038BD9DF800105E48EC
:100B1000417423E05C48807A10B94FF0FF30F3E76E
:100B200024B15948407C08B10020EDE714B1012000
:100B3000009001E000200090534A1268D17B524A95
:100B4000526810786B460122FFF767FE10B14FF034
:100B5000FF30D9E79DF800104B4841740020D3E7DF
:100B600038B504464848807A10B94FF0FF3038BD98
:100B7000BC2C02DB0120009015E0622C02DB02207D
:100B8000009010E02A2C02DB032000900BE0142CD4
:100B900002DB0420009006E00A2C02DB0520009016
:100BA00001E0062000903848C07A9DF80010884285
:100BB00001D10020DBE7344A12689178324A52684A
:100BC00010786B460122FFF728FE10B14FF0FF307E
:100BD000CDE79DF800102C48C1720020C7E770B522
:100BE0000446002624F00104274890F8240008B1A8
:100BF000002070BD2448807A10B94FF0FF30F8E72C
:100C00002148057C807A20401F4908740846007CF2
:100C1000A04202D04FF0FF3600E0002614B91A4877
:100C2000007D18B10120FFF756FF02E00020FFF71A
:100C300052FF3CB1FFF76EFE20B1134805744FF030
:100C4000FF30D6E73046D4E738B504460E4890F872
:100C50002300A04201D1002038BD14B13020009003
:100C600001E0002000900848807C20B19DF8000041
:100C700040F002000090044890F8220078B19DF8FE
:100C8000000040F0800009E02C0000200000034339
:100C90000000834233330342333383410090FE4AE2
:100CA0001268117DFC4A526810786B460122FFF7EA
:100CB000B4FD10B14FF0FF30CEE7F74880F8234085
:100CC0000020C9E738B50446282C02DD4FF0FF307C
:100CD00038BDDCB90020FFF7B7FF00208DF8000019
:100CE00007208DF80100EC4A1268917CEA4A5268AC
:100CF00010786B460222FFF790FD10B14FF0FF30E5
:100D0000E6E70021E44801750020E1E70120FFF754
:100D10009BFF20208DF80000012C06D100208DF8CB
:100D200001000520FFF71CFF17E0052C06DC012061
:100D30008DF801000520FFF713FF0EE0142C06DCF0
:100D400002208DF801000A20FFF70AFF05E00320CA
:100D50008DF801001420FFF703FF9DF80100072123
:100D600001EB8010C0B28DF80100CB4A1268917C73
:100D7000C94A526810786B460222FFF74EFD10B147
:100D80004FF0FF30A4E70821C348817200210173AE
:100D9000012101750020FFF722FF002098E738B5F8
:100DA0000446BD48807A10B94FF0FF3038BDBA48CC
:100DB00090F8240010B14FF0FF30F7E7B648007DFF
:100DC00050B134B1282C04DCE0B2FFF77BFF0020E7
:100DD000ECE70020FFF776FF042C01DA042404E09E
:100DE000B4F57A7F01DD4FF47A744FF47A7090FB9A
:100DF000F4F0401EC0B20090A74A12685178A64A8B
:100E0000526810786B460122FFF707FD10B14FF0D2
:100E1000FF30CBE79DF80000401C4FF47A7191FB46
:100E2000F0F081B29C48C1810146C9894810FFF7A2
:100E300097FE0020BAE738B504469748807CA04268
:100E400001D1002038BD002C46D0934A1268117998
:100E5000914A526810786B460122FFF729FC10B1C5
:100E60004FF0FF30EEE79DF8000020F020000090EA
:100E7000894A12681179884A526810786B460122B3
:100E8000FFF7CBFC10B14FF0FF30DBE7032004F09D
:100E900006FF02200090804890F8220020B19DF8C3
:100EA000000040F0800000907B4890F8230020B1C3
:100EB0009DF8000040F030000090774A1268117DE4
:100EC000754A526810786B460122FFF7A6FC00288D
:100ED00051D04FF0FF30B5E76F4A126811796E4A72
:100EE000526810786B460122FFF7E2FB10B14FF019
:100EF000FF30A7E76848807A00F0010028B19DF82C
:100F0000000040F02000009004E09DF8000020F078
:100F100020000090604A126811795F4A5268107888
:100F20006B460122FFF779FC10B14FF0FF3089E7E3
:100F3000032004F0B4FE584890F8220010B180203D
:100F4000009001E000200090534890F8230020B169
:100F50009DF8000040F0300000904F4A1268117D6B
:100F60004D4A526810786B460122FFF756FC10B1CB
:100F70004FF0FF3066E748488474002062E738B5D8
:100F80000446454890F82400A04201D1002038BD15
:100F900024B3414890F8250010B94FF0FF30F6E730
:100FA0000020FFF798FD0020FFF745FF3A49C88C65
:100FB000FFF7F5FE002000903749496808786B4636
:100FC00001222321FFF729FC0121334880F8241056
:100FD0000120FFF780FDFFF79DFC13E00020FFF7E5
:100FE0007AFD2D48007C00902B49496808786B46B3
:100FF00001222321FFF711FC0021274880F824104B
:10100000FFF788FC0020C2E738B5044604F0700002
:1010100010B10120009005E014B10020009001E023
:10102000402000901C4A1268917C1B4A526810783C
:101030006B460122FFF7F1FB20B1002116488172B7
:10104000481E38BD9DF8000020F040011248017391
:101050000020009004F0400020B99DF8000040F00E
:101060000400009004F0200020B99DF8000040F03A
:101070000200009004F0100020B99DF8000040F03C
:101080000100009004F0080020B99DF8000040F035
:1010900038000090004A01E02C0000201268D17C4A
:1010A000F94A526810786B460122FFF7B6FB20B16F
:1010B0000021F5488172481EC3E724B1082C02D0F4
:1010C0000020FFF7C1FDF048847200210175322035
:1010D00004F0E5FD0020B4E738B50446EA48807A1C
:1010E00010B94FF0FF3038BD022C06D0042C07D0C9
:1010F000082C08D0102C0CD108E0002000900BE048
:101100000820009008E01020009005E018200090D2
:1011100002E04FF0FF30E6E700BFDB48407A9DF881
:101120000010B0EBE10F01D10020DCE7D64A1268D5
:10113000D179D54A526810786B460122FFF76DFBD2
:1011400010B14FF0FF30CEE79DF80000C110CE483F
:1011500041720020C7E738B50446CB48807A10B901
:101160004FF0FF3038BDFA2C09D0B4F5FA7F09D022
:10117000B4F57A7F09D0B4F5FA6F0CD108E00020FD
:1011800000900BE00820009008E01020009005E09F
:101190001820009002E04FF0FF30E3E700BFBA48AC
:1011A000007A9DF80010B0EBE10F01D10020D9E7E3
:1011B000B54A12689179B44A526810786B46012298
:1011C000FFF72BFB10B14FF0FF30CBE79DF800008D
:1011D000C010AD4908720020C4E72DE9FC5F064647
:1011E0000F460025A8494968087801AB03220D2164
:1011F000FFF75EFA10B10720BDE8FC9F9DF80400E0
:1012000000F01F008DF804009DF8050000F01F009D
:101210008DF805009DF8060000F01F008DF806000F
:10122000002456E056F8240057F82410A0EB010BD8
:10123000BBF1000F01DB594601E0CBF1000108468C
:1012400008F018FC4FF08F41009008F0E1FA814659
:1012500001A8005D68B38D49086808F023FC834647
:1012600059468B4808F0D4FA804604E08949404644
:1012700008F060FC804601A8005D401EC0B201A9D4
:1012800008550028F2D14146484608F0C1FA834685
:101290004FF07E5108F04CFD82462AF0004B7B480F
:1012A0008169584608F012FD12D20120A040054382
:1012B0000EE076480169484608F008FC05D37348FB
:1012C0004169484608F002FD02D20120A0400543D2
:1012D000641C032CA6DB28468EE77CB505466A49CC
:1012E0004968087801AB04220D21FFF7E1F908B144
:1012F00007207CBD9DF80700C0F301109DF8041085
:1013000001F0E00140EAE1008DF800009DF80700DF
:10131000C0F381009DF8051001F0E00140EAE10012
:101320008DF801009DF8070000F003009DF80610FD
:1013300001F0E00140EAE1008DF8020000241CE029
:101340001DF8040018B9002045F8240013E05248A5
:1013500045F8240006E055F82400504908F0EAFB5F
:1013600045F824001DF80400401EC0B20DF804002A
:101370000028F0D100BF601CC4B2032CE0DB0020C9
:10138000B7E72DE9FE4F06460F4600256846FFF7F2
:10139000A4FF002442E056F8240057F82410A0EBE4
:1013A000010ABAF1000F01DB514601E0CAF1000168
:1013B000084608F05FFB83464FF08F4108F028FA9B
:1013C00080465DF82400002108F0E4FA16D05DF8AC
:1013D0002410404608F01CFA82464FF07E5108F077
:1013E000A7FC814629F0004A2848416A504608F087
:1013F0006DFC12D20120A04005430EE02348C169D4
:10140000404608F063FB05D32048016A404608F0D7
:101410005DFC02D20120A0400543641C032CBADB12
:101420002846BDE8FE8F2DE9F04F87B005460C46F3
:10143000914601208DF8100000208DF81100124A0D
:101440001268917C104A5268107804AB0222FFF7B0
:10145000E4F920B14FF0FF3007B0BDE8F08FC820AD
:1014600004F01DFC00208DF81000074A1268D17BA3
:10147000054A5268107804AB0122FFF7CEF978B123
:101480004FF0FF30E8E700002C000020389F0008F4
:1014900000B04C4554E3853F7B14AE3E1D5A843F5B
:1014A000FC4A12685179FB4A5268107804AB012259
:1014B000FFF7B3F910B14FF0FF30CDE7F54A1268EE
:1014C000917CF44A5268107804AB0122FFF7A5F929
:1014D00010B14FF0FF30BFE7EE4A1268D17DED4A00
:1014E0005268107804AB0122FFF797F910B14FF062
:1014F000FF30B1E7E74A12681179E64A526810787E
:1015000004AB0122FFF789F910B14FF0FF30A3E7D8
:101510000C208DF81000DF4A12681179DD4A5268FC
:10152000107804AB0122FFF778F910B14FF0FF30CB
:1015300092E70F2004F0B3FBD648806A407A8DF81A
:101540001000D44A12689178D24A5268107804ABDD
:101550000122FFF762F910B14FF0FF307CE7CD4870
:10156000806A007A8DF81000CA4A12685178C94A18
:101570005268107804AB0122FFF74FF910B14FF019
:10158000FF3069E7B9F1000F07D0C248806A807A5E
:1015900040F0E0008DF8100004E0BE48806A807AD8
:1015A0008DF81000BB4A12689179BA4A52681078D7
:1015B00004AB0122FFF731F910B14FF0FF304BE7D8
:1015C000B9F1000F07D0B348806AC07A40F0E0005C
:1015D0008DF8100003E0B048C07A8DF81000AD4AD5
:1015E0001268D179AB4A5268107804AB0122FFF738
:1015F00014F910B14FF0FF302EE7B9F1000F02D00F
:10160000C82004F04CFB40208DF81000A14A12685D
:101610001179A04A5268107804AB0122FFF7FDF857
:1016200010B14FF0FF3017E778208DF81000994A7D
:1016300012685179974A5268107804AB0122FFF77B
:10164000ECF810B14FF0FF3006E79349888904F0B9
:1016500026FB00208DF810008E4A126851798D4AC1
:101660005268107804AB0122FFF7D7F810B14FF0A1
:10167000FF30F1E6874A1268917A864A52681078FC
:1016800004AB0222FFF714F810B14FF0FF30E3E68D
:101690009DF811009DF8101040EA012B0C209BFBD7
:1016A000F0F0C6B20020A86068602860A0606060AA
:1016B0002060824665E0774A1268D17A754A52689E
:1016C000107804AB0C22FEF7F3FF10B14FF0FF309F
:1016D000C2E69DF811009DF8101040EA012000B20A
:1016E000ADF808009DF813009DF8121040EA0120A3
:1016F00000B2ADF80A009DF815009DF8141040EAFC
:10170000012000B2ADF80C00BDF9081020680844B3
:101710002060BDF90A10606808446060BDF90C10D3
:10172000A0680844A0609DF817009DF8161040EAD4
:10173000012000B2ADF800009DF819009DF81810C6
:1017400040EA012000B2ADF802009DF81B009DF8B0
:101750001A1040EA012000B2ADF80400BDF90010F3
:10176000286808442860BDF9021068680844686069
:10177000BDF90410A8680844A8600AF1010000F04F
:10178000FF0AB24597DB4448D0F800C02868C1176B
:10179000090441EA1041070462460023384605F077
:1017A00026FC32460023CDE9020105F020FC28602A
:1017B0003948D0F800C06868C117090441EA1041EF
:1017C000070462460023384605F011FC3246002328
:1017D000CDE9020105F00BFC68602F48D0F800C08D
:1017E000A868C117090441EA1041070462460023B2
:1017F000384605F0FCFB32460023CDE9020105F036
:10180000F6FBA8602448D0F804C02168C81700047B
:1018100040EA11480F04624600233846414605F06D
:10182000E6FB32460023CDE9020105F0E0FB206033
:101830001948D0F804C06068C117090441EA104192
:10184000070462460023384605F0D1FB32460023E8
:10185000CDE9020105F0CBFB60600F48D0F804C071
:10186000A068C117090441EA104107046246002339
:10187000384605F0BCFB32460023CDE9020105F0F5
:10188000B6FBA060A068002808DDA068A0F5803045
:10189000A06007E02C000020389F0008A06800F539
:1018A0008030A0600020D7E50146FA48007C08702F
:1018B000002070470146F74890F8240010B14FF01F
:1018C000FF307047F348C08908800020F9E70146DF
:1018D000F048C07A082817D2DFE800F01704070A9A
:1018E0000D101318BC20088013E06220088010E05F
:1018F0002A2008800DE0142008800AE00A200880D1
:1019000007E00520088004E000BF00BF0020088039
:1019100000BF00BF002070470146DE48407A30B16A
:10192000012807D0022808D003280CD108E00220A3
:1019300008700BE00420087008E00820087005E03B
:101940001020087002E04FF0FF30704700BFD14810
:10195000C07C18B108784006000E08700020F4E73B
:101960000146CC48007A30B1012807D0022809D0BE
:1019700003280FD10AE0FA2008800EE04FF4FA7035
:1019800008800AE04FF47A70088006E04FF4FA60AD
:10199000088002E00020088000BF00BF00207047E0
:1019A0002DE9F04F8DB083460F4602200C90B948C8
:1019B00090F8240020B10020FFF7E1FA012600E0B2
:1019C000002603A8FFF7CCFF05A8FFF7A5FF01A895
:1019D000FFF77DFF02A8FFF76DFFAE4890F80AA061
:1019E00004A8FFF761FF002407E0002239465846AB
:1019F000FFF719FD00B902E0641C022CF5DB00BF03
:101A0000022C01D1002528E0002407E0012206A9CC
:101A100009A8FFF708FD00B902E0641C022CF5DB01
:101A200000BF022C01D1002517E006A93846FFF7B8
:101A3000A8FC00F0FF0809A95846FFF7CEFB00F00C
:101A4000FF090025B9F1000F01D145F00105B8F1FA
:101A5000000F01D145F0020500BFFF208D4908723B
:101A6000FF218C484172C1724FF6FF71C181FF2185
:101A70008172017401210173BDF80C00FFF76BFB4B
:101A80009DF81400FFF728FBBDF80400FFF768F885
:101A9000BDF80800FFF783F95046FFF7B5FA9DF847
:101AA0001000FFF79CF816B10120FFF768FA2846EE
:101AB0000DB0BDE8F08F70B588B002A905A8FFF79A
:101AC0006FFF0446072C3CD101A8FEF706FF0598DE
:101AD00007F0D0FF0646019908F02CF8054607F0FC
:101AE0008DFF0590069807F0C5FF0646019908F09E
:101AF00021F8054607F082FF0690079807F0BAFF25
:101B00000646019908F016F8054607F077FF07909A
:101B100005A801F0A2F86846FEF7B8FEBDF800106F
:101B2000029848430290BDF8001003984843039080
:101B3000BDF8001004984843049002A801F020F971
:101B400000BF08B070BD014691F90020002A01DDF8
:101B500000201EE091F90020002A01DA042018E09C
:101B600091F90120002A01DD012012E091F9012004
:101B7000002A01DA05200CE091F90220002A01DD9B
:101B8000022006E091F90220002A01DA062000E096
:101B90000720704710B504462046FFF7D4FF0346E0
:101BA000E01CFFF7D0FF43EAC00083B2A01DFFF79F
:101BB000CAFF43EA801083B2184610BD704738B59B
:101BC000002419E033480068C07AA04204D03148AC
:101BD0000068407DA04200D10CE02E494968087899
:101BE0006B4601222146FEF763FD10B14FF0FF3036
:101BF00038BD00BF601CC4B2264840680079A042CE
:101C0000E0DC0020F4E770B504460D46214800688A
:101C1000C07AA04204D01F480068407DA04202D193
:101C20004FF0FF3070BD1B4840680079A04202DCD5
:101C30004FF0FF30F6E71749496808782B46012234
:101C40002146FEF735FDEDE71CB580208DF800003C
:101C5000104A1268917C0F4A526810786B46012234
:101C6000FEF7DBFD10B14FF0FF301CBD642004F027
:101C700016F800208DF80000064A1268917C054A8B
:101C8000526810786B460122FEF7C7FD20B14FF075
:101C9000FF30EAE72C000020FE4A1268917DFD4AE1
:101CA000526810786B460622FEF702FD10B14FF025
:101CB000FF30DAE79DF80500C007400F9DF80310DC
:101CC00001F0010140EA41009DF8011001F001011D
:101CD00040EA01048CB1012C03D10121ED48C1740B
:101CE00030E0022C03D10021EA48C1742AE0EAA0C6
:101CF00005F0A2F94FF0FF30B7E7E64A1268D17855
:101D0000E44A526810786B460122FEF7D1FC10B10C
:101D10004FF0FF30A9E79DF8000000F00F042CB948
:101D2000E64805F089F94FF0FF309EE7042C06D114
:101D3000E3A005F081F90121D648C17402E0002139
:101D4000D448C174FF21D3488172FF20D149087261
:101D5000FF21D0484172C1724FF6FF71C181FF214E
:101D6000017481740121017380F82210002180F830
:101D7000231041750175163001604160816016388D
:101D800080F8241080F82510C1844FF4FA60FFF722
:101D9000E2F910B14FF0FF3067E70220FFF79CF93E
:101DA00010B14FF0FF3060E72A20FEF7D9FE10B1E6
:101DB0004FF0FF3059E73220FEF7F1FF10B14FF03E
:101DC000FF3052E70020FEF70AFF10B14FF0FF305E
:101DD0004BE70020FFF72FF810B14FF0FF3044E73A
:101DE0000020FFF711F900203FE77CB504460D46BF
:101DF000A848807A00F0700010B94FF0FF307CBD29
:101E0000A44A1268117BA34A526810786B460622D6
:101E1000FEF74EFC10B14FF0FF30F0E79DF80100E7
:101E20009DF8001040EA012000B220809DF80300D8
:101E30009DF8021040EA012000B260809DF8050084
:101E40009DF8041040EA012000B2A0800020D6E7EF
:101E50007CB504460D468F48807A00F0080010B922
:101E60004FF0FF307CBD8B4A1268517B894A526823
:101E700010786B460622FEF71BFC10B14FF0FF30C6
:101E8000F0E79DF801009DF8001040EA012000B243
:101E900020809DF803009DF8021040EA012000B266
:101EA00060809DF805009DF8041040EA012000B212
:101EB000A08015B12846FFF781FE0020D2E72DE96A
:101EC000FE4F05460C467348807A18B94FF0FF3034
:101ED000BDE8FE8F6F4A1268917B6E4A5268107897
:101EE00002AB0222FEF7E4FB10B14FF0FF30EFE748
:101EF0009DF809009DF8081040EA012006B214B1CF
:101F00002046FFF75BFE63494968C88807F0CAFDB1
:101F1000604901904968B1F9080007F0ABFD8346BC
:101F2000304607F0A7FD5946009007F001FF8246B2
:101F3000019907F06DFC8146694907F0FBFB80467B
:101F40004FF08F4107F0F6FD074607F057FD286078
:101F50000020BDE710B588B004461CB94FF0FF3033
:101F600008B010BD206828B9606818B9A06808B921
:101F70000020F5E747494968087806AB0322114677
:101F8000FEF796FB10B14FF0FF30E9E79DF818001F
:101F9000082101EB201000F00F00ADF800009DF8C3
:101FA000190001EB201000F00F00ADF802009DF8C1
:101FB0001A0001EB201000F00F00ADF804002068BB
:101FC0004100BDF90000403091FBF0F000B2ADF8E7
:101FD000100060684100BDF90200403091FBF0F054
:101FE00000B2ADF81200A0684100BDF90400403015
:101FF00091FBF0F000B2ADF814002649496808786A
:1020000006AB06221146FEF753FB10B14FF0FF302E
:10201000A6E79DF819009DF8181040EA012000B2CB
:10202000ADF808009DF81B009DF81A1040EA012049
:1020300000B2ADF80A009DF81D009DF81C1040EAA2
:10204000012000B2ADF80C00BDF81000BDF808107A
:10205000084400B2ADF81000BDF81200BDF80A1037
:10206000084400B2ADF81200BDF81400BDF80C1021
:10207000084400B2ADF81400BDF81000000A8DF855
:102080001800BDF81000C0B28DF81900BDF812009C
:10209000000A27E02C000020556E737570706F7277
:1020A00074656420736F6674776172652070726FF7
:1020B0006475637420726576202E0A0014AD0008E2
:1020C00048616C662073656E7369746976697479AA
:1020D000207061727420666F756E642E0A000000B5
:1020E00000000C428DF81A00BDF81200C0B28DF845
:1020F0001B00BDF81400000A8DF81C00BDF8140088
:10210000C0B28DF81D00FD494968087806AB06226B
:102110001146FEF782FB10B14FF0FF3020E70020A0
:102120001EE7014600200880401E704701464FF020
:10213000FF3070470146F148807A10B101200870E5
:1021400001E0002008700020704738B50446EB48D5
:10215000807A10B94FF0FF3038BDE84A1268117C20
:10216000E64A526810786B460222FEF7A1FA10B1D7
:102170004FF0FF30F0E79DF801009DF8001040EAB5
:10218000012000B220800020E6E72DE9FE4F07463F
:10219000884692461D46DDF830B000260024D74818
:1021A00090F8240010B1601EBDE8FE8F002028705A
:1021B000D248807A10B94FF0FF30F5E7CF48007C65
:1021C00010B94FF0FF30EFE7CC48007C00F0400042
:1021D00008B1B01CC6B2C948007C00F0200008B1AC
:1021E000B01CC6B2C548007C00F0100008B1B01C9D
:1021F000C6B2C248007C00F0080008B1B01DC6B2EB
:10220000BE4A1268917ABD4A526810786B46022223
:10221000FEF74EFA10B14FF0FF30C5E79DF8010010
:102220009DF8001040EA0129B14501DA0020BBE722
:10223000B24840684088B9EB600F17DDAF4A1268BA
:10224000517CAE4A526810786B460122FEF730FA94
:1022500010B14FF0FF30A7E79DF8000000F010002C
:1022600020B1FEF757FB6FF001009DE75046FFF7E6
:10227000A5FCA24A1268D17AA04A526810786B462F
:102280003246FEF715FA10B14FF0FF308CE799FB9C
:10229000F6F0401E8BF8000000202870B4422AD0CF
:1022A0009648007C00F0080028B3601C1DF8000070
:1022B0001DF8041040EA012000B2A8F80000E01C5C
:1022C0001DF80010A01C1DF8000041EA002000B21B
:1022D000A8F80200601D1DF80010201D1DF8000068
:1022E00041EA002000B2A8F80400287840F0080075
:1022F0002870A01D84B2B44213D08048007C00F046
:10230000400070B1601C1DF800001DF8041040EA88
:10231000012000B23880287840F040002870A01CCE
:1023200084B2B44213D07548007C00F0200070B134
:10233000601C1DF800001DF8041040EA012000B2E6
:102340007880287840F020002870A01C84B2B44225
:1023500013D06A48007C00F0100070B1601C1DF8BA
:1023600000001DF8041040EA012000B2B88028786F
:1023700040F010002870A01C84B2002014E7F8B5CB
:1023800004460F4616465D4890F8240010B94FF0F9
:10239000FF30F8BD5948807A10B94FF0FF30F8E7A8
:1023A000564A1268917A554A526810786B46022252
:1023B000FEF77EF910B14FF0FF30EAE79DF801001B
:1023C0009DF8001040EA0125A54203DA0020307094
:1023D000401EDEE7494840684088B5EB600F17DDD6
:1023E000464A1268517C454A526810786B46012271
:1023F000FEF75EF910B14FF0FF30CAE79DF800001C
:1024000000F0100020B1FEF785FA6FF00100C0E780
:10241000E2B23A4B1B68D97A384B5B6818783B4676
:10242000FEF746F910B14FF0FF30B2E795FBF4F03C
:10243000401E30700020ACE70146304880F8221082
:1024400000207047F8B504460D46164616B94FF001
:10245000FF30F8BD2948807A10B94FF0FF30F8E717
:1024600020128DF80000E0B28DF801009DF8010007
:102470002844224949684989884202DD4FF0FF30EB
:10248000E7E71E4A1268117E1C4A526810786B46B4
:102490000222FEF7C2F910B14FF0FF30D9E7EAB2DD
:1024A000164B1B68597D154B5B6818783346FEF751
:1024B000B4F910B14FF0FF30CBE70020C9E7F8B511
:1024C00004460D46164616B94FF0FF30F8BD0B48CE
:1024D000807A10B94FF0FF30F8E720128DF8000035
:1024E000E0B28DF801009DF80100284403494968D5
:1024F0004989884204DD4FF0FF30E7E72C000020D7
:10250000FE4A1268117EFD4A526810786B4602221C
:10251000FEF783F910B14FF0FF30D7E7EAB2F74B7F
:102520001B68597DF54B5B6818783346FEF7C0F899
:1025300010B14FF0FF30C9E70020C7E72DE9F043A5
:1025400085B005460E4690469946EC4890F8250021
:1025500020B14FF0FF3005B0BDE8F08316B94FF061
:10256000FF30F8E7002423E0281B102801DD1020AD
:1025700000E0281B87B2321939462046FFF762FF78
:1025800010B14FF0FF30E6E701AA39462046FFF7C9
:1025900096FF10B14FF0FF30DDE730193A4601A940
:1025A00004F0D2FE10B16FF00100D4E7E01984B25C
:1025B000AC42D9DB4FEA28208DF8000008F0FF007C
:1025C0008DF80100CD4A1268917ECC4A526810788D
:1025D0006B460222FEF721F910B14FF0FF30BAE747
:1025E0000121C64880F82510A0F826900020B2E707
:1025F0000146C24890F82400087000207047024647
:102600004FF0FF30704701464FF0FF307047F8B58C
:1026100005460F461446002C70D0B5F5FF5F01DD6E
:10262000FF2605E0202D01DA012601E0C5F347165B
:1026300007B90127282C02DD4FF0FF30F8BDAF4865
:10264000407D28BBAD4890F8240038B10020FEF74B
:1026500096FC0121A94880F8201003E00021A7483A
:1026600080F82010A5481630FFF77AF9A3481830F3
:10267000FFF752F9A1481A30FFF729F99F481C309B
:10268000FFF718F99D48817A81771F30FFF70CF921
:102690000020FEF720FA0020FEF714FB00208DF842
:1026A0000000964A12689178944A526810786B46F6
:1026B0000122FEF7B2F810B14FF0FF30BEE7402024
:1026C0008DF800008D4A1268D17B8C4A52681078D0
:1026D0006B460122FEF7A1F800B165E08DF80060BD
:1026E0008DF80170854A1268117A844A5268107810
:1026F0006B460222FEF791F808B155E047E005204D
:1027000003F0CDFA7D48407A072101EBC000C0B24A
:102710008DF80000794A1268D179784A52681078A9
:102720006B460122FEF779F800B13DE020208DF8DC
:102730000000012C03D100208DF801000EE0052CD3
:1027400003DC01208DF8010008E0142C03DC0220DA
:102750008DF8010002E003208DF801009DF80100D2
:10276000072101EB8010C0B28DF80100634A1268A6
:10277000917C624A526810786B460222FEF74DF84F
:1027800000B111E001215D484175002056E75B4A28
:102790001632002103E0505C00B105E0491C0C2911
:1027A000F9D34FF0FF3049E7FF2054490872FF2169
:1027B00052484172C1724FF6FF71C181FF2181728F
:1027C0000174012101730146887FFEF71DFC4B490E
:1027D000C88AFEF7C0FC4949087EFEF77DFC4749E0
:1027E000488BFEF7BDF94549888BFEF7D8FA434977
:1027F000C87FFEF7F4F9414890F8200010B101209D
:10280000FEF7BDFB00213D484175002016E710B5DD
:1028100001F064F8FFF718FA002834D17820FEF7A9
:10282000F3FB08B1012010BD7820FEF7D8F908B1FC
:102830000220F8E7C820FEF7B2FA08B10320F2E759
:1028400000F070F908B10420EDE72D48FFF7A2F978
:10285000044600F071F908B10520E4E740F2731076
:1028600000F0ABFD08B10620DDE7C82000F01EFB3C
:1028700008B10720D7E7FFF71EF90120FEF77FFB1D
:1028800008B10820CFE70020CDE72DE9F04F89B04F
:102890001C481D491D4B1E4ACDE900101D491E480C
:1028A00000F0EAFE18B1012009B0BDE8F08F16482B
:1028B000008800F4807000287ED01549086807F071
:1028C000D9F804464FF09D4106F0A2FF1349086075
:1028D0000F49486807F0CEF804464FF09D4106F0D6
:1028E00097FF0F4908600A49886807F0C3F8044653
:1028F0004FF09D4106F08CFF0A4915E02C000020A6
:1029000058000020940000208C000020900000203F
:1029100014020020860000208000002064000020B7
:10292000680000206C00002008607549C86807F046
:10293000A1F804464FF09D4106F06AFF7149086016
:10294000714801684FF0804007F0F4F806906F4836
:102950000168069807F0EEF882466D4801684FF06E
:10296000404007F0E7F8069066480168069807F0CF
:10297000E1F88346514606F0DDFE079006F0AEFE14
:10298000064605F03BFE80464FF06632614B06F08E
:10299000CBFB044606F076F95F4908605B480168A6
:1029A0004FF0804007F0C6F803905848016803983C
:1029B00007F0C0F8824600E09DE0554801684FF0FE
:1029C000404007F0B7F8039051480168039807F0BA
:1029D000B1F88346514607F0ABF981464FF07E517E
:1029E00006F0A8FE044606F079FECDE9040146484B
:1029F00001684FF0804007F09DF883464448016825
:102A0000584607F097F88146404801684FF08040EB
:102A100007F090F883463B480168584607F08AF86B
:102A20008246494606F086FE044606F057FE0746F3
:102A3000DDE9042306F02AF84FF06632354BCDE984
:102A4000060106F071FB054606F01CF933490860E3
:102A50002C480168006807F06DF803902B48016866
:102A6000006807F067F8029029480168006807F0DD
:102A700061F8834624480168006807F05BF859460E
:102A8000019006F057FE8246029907F051F98146FF
:102A9000039907F04DF9044606F020FECDE9040144
:102AA000184801681848006807F044F8824617483B
:102AB00001681748006807F03DF88346514606F064
:102AC00039FE81464FF0804107F034F8044606F0A5
:102AD00005FE0746DDE9042305F0D8FF4FF0663216
:102AE0000C4BCDE9060106F01FFB054606F0CAF8BF
:102AF0000B49086001E00220D6E60020D4E6000081
:102B00001402002070000020640000206C000020EF
:102B10006800002066A64C40740000207800002069
:102B20007C00002010B5C8234FF48062F74940F6BE
:102B3000F630FFF703FD10BD10B586B00446F4A0D3
:102B400000680390F3A000680290F3A00068019071
:102B5000F2A00068009004F0030003A9085C8DF85F
:102B6000140003A8C4F3C101405C8DF8150003A84C
:102B7000C4F38111405C8DF8160004F0030002A933
:102B8000085C8DF8100002A8C4F3C101405C8DF808
:102B9000110002A8C4F38111405C8DF8120005AA4F
:102BA000032140F22640FFF74DFC18B14FF0FF30F3
:102BB00006B010BD04AA032140F22A40FFF742FCF0
:102BC00010B14FF0FF30F3E70198059000980490A2
:102BD00004F0040058B19DF8140040F001008DF895
:102BE00014009DF8100040F001008DF8100004F072
:102BF000200058B19DF8150040F001008DF8150037
:102C00009DF8110040F001008DF8110004F480706F
:102C100058B19DF8160040F001008DF816009DF89F
:102C2000120040F001008DF8120005AA03214FF4B4
:102C30008860FFF707FC10B14FF0FF30B8E704AA37
:102C4000032140F23140FFF7FDFB10B14FF0FF30A0
:102C5000AEE7B34804810020AAE71FB50446B04898
:102C6000007A00F0030054F820000190AC48007A8C
:102C700000F0040010B1019840420190A848007A89
:102C8000C0F3C10054F820000290A548007A00F07B
:102C9000200010B1029840420290A148007AC0F38F
:102CA000811054F8200003909D48008900F4807042
:102CB00010B10398404203909A49019880FB0101AA
:102CC000800F40EA810001909649029880FB011034
:102CD000820042EA917002909249039880FB0110B1
:102CE000820042EA917003900198000E8DF8000076
:102CF0000198000C8DF801000198000A8DF802007F
:102D00000198C0B28DF803006A4604214FF4747034
:102D1000FFF798FB18B14FF0FF3004B010BD0298D8
:102D2000000E8DF800000298000C8DF8010002984A
:102D3000000A8DF802000298C0B28DF803006A46BE
:102D400004214FF47570FFF77DFB10B14FF0FF3099
:102D5000E3E70398000E8DF800000398000C8DF84F
:102D600001000398000A8DF802000398C0B28DF8A4
:102D700003006A4604214FF47670FFF763FBCCE74B
:102D800070B588B0064601A8FDF780FDBDF80400C7
:102D90000021C90341EA5045C4036148007A00F0AC
:102DA000030056F8200005905D48007A00F004000A
:102DB00010B10598404205905948007AC0F3C1000F
:102DC00056F8200006905648007A00F0200010B116
:102DD0000698404206905248007AC0F3811056F897
:102DE000200007904E48008900F4807010B10798C9
:102DF000404207900598C117A0FB042301FB043152
:102E000000FB0510810041EA927005900698C117F9
:102E1000A0FB042301FB043100FB0510810041EA03
:102E2000927006900798C117A0FB042301FB0431A0
:102E300000FB0510810041EA927007900598000E92
:102E40008DF808000598000C8DF809000598000A17
:102E50008DF80A000598C0B28DF80B000698000E98
:102E60008DF80C000698000C8DF80D000698000AED
:102E70008DF80E000698C0B28DF80F000798000E6E
:102E80008DF810000798000C8DF811000798000AC3
:102E90008DF812000798C0B28DF8130002AA0C2119
:102EA0004FF42570FFF7CEFA08B070BD30B585B08D
:102EB00004461DA207CA02AB07C3C82C03DD4FF0AE
:102EC000FF3005B030BDC82090FBF4F0401E85B245
:102ED000280A8DF80000E8B28DF801006A46022148
:102EE00040F21620FFF7AEFA10B14FF0FF30E8E7DE
:102EF00002AA0C2140F6C120FFF7A4FA10B14FF04E
:102F0000FF30DEE7064884810020DAE7609F000892
:102F10004CCD6C000CC92C00365676002646660057
:102F20002402002009E3CA02FEF2ABC4AAF1DFDFEB
:102F3000BBAFDFDF0146FC48808908800020704776
:102F40002DE9FC4706460F4606F0070010B1B7F51D
:102F5000C86F03DD4FF0FF30BDE8FC87384606F050
:102F6000A1FD8146F14906F053FC80466846FEF714
:102F7000D3FC9DF80000022806D0042816D00828AB
:102F800026D0102848D135E04FF08D41404606F05C
:102F9000D1FD814606F04EFD84B2E549404606F07B
:102FA000C9FD814606F046FD85B238E04FF08C4100
:102FB000404606F0BFFD814606F03CFD84B2DD4987
:102FC000404606F0B7FD814606F034FD85B226E0A6
:102FD0004FF08B41404606F0ADFD814606F02AFDDC
:102FE00084B2D549404606F0A5FD814606F022FD93
:102FF00085B214E04FF08A41404606F09BFD8146C1
:1030000006F018FD84B2CD49404606F093FD814696
:1030100006F010FD85B202E04FF0FF309CE700BFE4
:1030200020128DF80400E0B28DF8050028128DF80A
:103030000600E8B28DF8070006F00100A0B101AA71
:1030400002214FF4EA70FFF7FDF910B14FF0FF30A5
:1030500082E70DF1060202214FF49270FFF7F2F9B8
:1030600010B14FF0FF3077E706F00200A0B101AADF
:1030700002214FF4EC70FFF7E5F910B14FF0FF308B
:103080006AE70DF1060202214FF49470FFF7DAF9B6
:1030900010B14FF0FF305FE706F00400A0B101AAC5
:1030A00002214FF4EE70FFF7CDF910B14FF0FF3071
:1030B00052E70DF1060202214FF49670FFF7C2F9B4
:1030C00010B14FF0FF3047E7002045E738B5044620
:1030D0000020009004F0010020B19DF8000040F0B5
:1030E0003000009004F0020020B19DF8000040F094
:1030F0000C00009004F0040020B19DF8000040F0A6
:10310000030000906A4601214FF4A470FFF79AF97A
:1031100038BD38B50446012C01DA012402E0042C44
:1031200000DD0424601EC0B200906A46012140F216
:103130004F10FFF787F938BD38B50446052094FBDA
:10314000F0F085B228128DF80000E8B28DF8010089
:103150006A4602214FF4EF70FFF774F938BD38B5B5
:103160000446052094FBF0F085B228128DF800008B
:10317000E8B28DF801006A4602214FF4ED70FFF7C6
:1031800061F938BDF8B505460E464FF47A7095FBE7
:10319000F0F000FB06F4200E8DF80000200C8DF8F6
:1031A0000100200A8DF80200E0B28DF803006A46A3
:1031B00004214FF4AE70FFF745F9F8BD38B5044669
:1031C000052094FBF0F084B220128DF80000E0B2EC
:1031D0008DF801006A4602214FF4AD70FFF732F915
:1031E00038BD38B50446052094FBF0F084B22012B7
:1031F0008DF80000E0B28DF801006A4602214FF41C
:10320000AC70FFF71FF938BD38B5044614B94FF05C
:10321000FF3038BD6A4604214FF45870FFF74FF96C
:1032200010B14FF0FF30F4E79DF8000000069DF864
:10323000011040EA01409DF8021040EA01209DF88B
:103240000310084320600020E3E738B50446200E51
:103250008DF80000200C8DF80100200A8DF8020086
:10326000E0B28DF803006A4604214FF45870FFF76E
:10327000E9F838BD38B5044614B94FF0FF3038BD11
:103280006A4604214FF47170FFF719F910B14FF03D
:10329000FF30F4E79DF8000000069DF8011040EAB9
:1032A00001409DF8021040EA01209DF803100843F8
:1032B00000EB8000800020600020E0E738B5044685
:1032C0001420B4FBF0F4200E8DF80000200C8DF8D3
:1032D0000100200A8DF80200E0B28DF803006A4672
:1032E00004214FF47170FFF7ADF838BD38B50446CE
:1032F00064B120208DF8000028208DF801003020D6
:103300008DF8020038208DF8030004E0A322042188
:10331000684604F045F86A46042140F69E20FFF70F
:1033200091F8FDF7F7FA38BD240200200000484369
:10333000000040460000C045000040450000C04479
:1033400038B5044664B1C0208DF80000C2208DF865
:103350000100C4208DF80200C6208DF8030004E0AF
:103360008B220421684604F01BF86A46042140F6CB
:103370009820FFF767F8FDF7CDFA38BD3EB5044653
:103380006CB1FDA1D1E900208968CDE9002002914E
:103390006A4609214FF49760FFF754F83EBDF9A241
:1033A000D2E900109268CDE9010200916A46092134
:1033B0004FF49760FFF746F8F0E73EB50446022069
:1033C0008DF80000CA208DF80100E3208DF802007E
:1033D00009208DF803006A4604216820FFF732F8BF
:1033E000A3208DF8000004F0400048B1C0208DF803
:1033F0000100C8208DF80200C2208DF8030006E00D
:10340000A3208DF801008DF802008DF8030004F46C
:10341000C07048B1C4208DF80400CC208DF80500A0
:10342000C6208DF8060006E0A3208DF804008DF874
:1034300005008DF80600A3208DF807008DF8080020
:103440008DF809006A460A2140F6A720FEF7FAFF28
:1034500004F0030018B120208DF8000002E0D8200D
:103460008DF800006A46012140F6B620FEF7EAFF1B
:1034700004F0200018B10120FFF780FF02E00020D7
:10348000FFF77CFF04F4C07008B304F4807060B1EF
:10349000B2208DF800008B208DF80100B6208DF849
:1034A00002009B208DF803000BE0B0208DF8000097
:1034B00080208DF80100B4208DF8020090208DF856
:1034C00003006A46042140F6A220FEF7BBFF04F089
:1034D000010020B3F8208DF800006A4601214FF466
:1034E0000B60FEF7AFFFFA210720FFF729FD072049
:1034F000FFF7ECFD0120FFF70CFE6420FFF71CFE38
:103500004FF4FA70FFF72BFEC821A148FFF73AFEEF
:103510002820FFF753FE0A20FFF763FE08E0D820BB
:103520008DF800006A4601214FF40B60FEF78AFF18
:1035300004F0020018B1D9208DF8000002E0D82074
:103540008DF800006A46012140F23D70FEF77AFFD7
:1035500004F0040018B10120FFF7F2FE02E00020A1
:10356000FFF7EEFE04F0100018B10120FFF7BEFED9
:1035700002E00020FFF7BAFE44F0080085494881C8
:10358000FDF7C8F900208349887304F0400018B1A2
:103590000846807B801D887304F4C07020B17D488C
:1035A000807B801D7B49887304F0140020B179482A
:1035B000807B10307749887304F0030020B1754890
:1035C000807B001D7349887300203EBD0146714811
:1035D00040890880002070472DE9F0410446E078DA
:1035E00000F0C006E07800F03F05607800F00100D0
:1035F00098B1EF102846E91705EB5171C910A5EBFA
:10360000C101491C01F0FF086248006820B161480F
:10361000414602683846904700BF607800F00800D5
:1036200030B15C48406818B1B0115A4A51688847B7
:103630000020BDE8F08110B586B0044656A207CA46
:1036400003AB07C357A207CA8DE80700012C09D0B6
:10365000022C0ED103AA0B2140F68220FEF7F2FEC7
:1036600006B010BD6A460B2140F68220FEF7EAFE46
:10367000F6E74FF0FF30F3E72DE9F04F8DB0074646
:10368000884615469B46DDE9166A002400203080F6
:103690004049887B524605A9FEF771FE18B1601EAD
:1036A0000DB0BDE8F08F3B48807A00F01400002890
:1036B00061D09DF8140000069DF8151040EA014005
:1036C0009DF8161040EA01209DF817100843286065
:1036D0009DF8180000069DF8191040EA01409DF879
:1036E0001A1040EA01209DF81B10084368609DF8FD
:1036F0001C0000069DF81D1040EA01409DF81E10B8
:1037000040EA01209DF81F100843A8609DF82000A2
:1037100000069DF8211040EA01409DF8221040EA81
:1037200001209DF823100843E86004F11000C4B2A2
:10373000286800140190686800140290A8680014BA
:103740000390E8680014049001984043029901FB3B
:103750000100039901FB0100049901FB0109B9F182
:10376000706F02DBB9F1885F22DDFDF7D3F800202E
:103770003080401E94E721E0B8AAB38DB4980D358F
:103780005D000000B8AAAAAAB088C3C5C70000009F
:1037900009E3CA0224020020D8B1B9F38BA391B681
:1037A00009B4D900DAB1B9F38BA391B6DAB4DA006F
:1037B000B6F9000040F48070308000BF3248807A53
:1037C00000F0400020B305A9601C085C095D40EAD8
:1037D000012000B2A8F8000005A9E01C095C05AAB8
:1037E000A01C105C41EA002000B2A8F8020005A964
:1037F000601D095C201D105C41EA002000B2A8F8A1
:103800000400A01DC4B2B6F9000040F008003080EA
:103810001D48408900F4C07008B305A9601C085C0D
:10382000095D40EA012000B2388005A9E01C095C6E
:1038300005AAA01C105C41EA002000B2788005A90E
:10384000601D095C201D105C41EA002000B2B880B8
:10385000A01DC4B2B6F9000040F0700030800A48E4
:10386000807A00F0030018B105A90819FFF7B4FE2B
:10387000002015E70146044801600020704701461A
:1038800001484160002070472402002008B5012152
:10389000242001F051F84FF48070ADF800001020A2
:1038A0008DF8030003208DF802006946094800F0F6
:1038B00087FD4FF48071074800F02FFE0420ADF81B
:1038C00000006946044800F07BFD0421024800F036
:1038D00024FE08BD000801400014014008B5012184
:1038E000082001F029F8C020ADF8000010208DF864
:1038F000030003208DF8020069468B4800F060FD4C
:1039000001208A4908608A49C1F89C0108BD10B5A8
:103910008548006820F070408349086008460068C8
:1039200040F04050086001208049091D086080492E
:10393000C1F89801042002F08EF900207B49091D8E
:103940000860042002F087F900207949C1F8980145
:1039500010BD10B57448006820F0704072490860CE
:103960000846006840F04050086000206F49086039
:103970006F49C1F89C01042002F06DF901206B49E8
:1039800008606B49C1F89C01042002F064F910BD85
:1039900010B500246448006820F070406249086057
:1039A0000846006840F00040086001205F49091D9A
:1039B000086002F050F901205D49C1F8980102F059
:1039C0004AF907E0601CC4B2FA2C03DDFFF7C1FF1F
:1039D000012010BD55487C3800680028F2D15349B9
:1039E000086000BFF5E710B50020504908604E4858
:1039F000006820F070404C4908600846006840F0BC
:103A00004050086000204A49C1F89C01022002F0A1
:103A100022F9012045490860022002F01CF900202B
:103A20004349C1F8980110BD10B500203F49086016
:103A30003D48006820F070403B4908600846006837
:103A400040F04050086001203949C1F89C01022033
:103A500002F001F9012035490860022002F0FBF86C
:103A600000203349C1F8980110BD70B504462E48B6
:103A7000006820F070402C4908600846006840F05B
:103A800040500860002029490860002517E0E0093F
:103A90002649091D08606006040E022002F0DBF8CA
:103AA00001202349C1F89801022002F0D4F8002037
:103AB0001E490860022002F0CEF8681CC5B2082D2D
:103AC000E5DB70BD70B5054600241748006820F09E
:103AD0007040154908600846006840F000400860E2
:103AE000002616E0002011490860022002F0B3F819
:103AF00001200F49C1F898016006040E0B487C387C
:103B0000006808B1601CC4B2012002F0A4F8701C67
:103B1000C6B2082EE6DB15B9FFF786FF01E0FFF716
:103B200062FF204670BD0000000C014098812142D8
:103B3000008021420146002901DA484200E008469F
:103B400070472DE9F04105460C46002D07DA0120AB
:103B5000C14908600020C149C1F8800106E0002089
:103B6000BD4908600120BD49C1F880012846FFF722
:103B7000E1FF00F6C41086B23146B94801F008FEF4
:103B8000002C08DA0020B449091D08600120B3495F
:103B9000C1F88C0107E00120AF49091D0860002031
:103BA000AE49C1F88C012046FFF7C4FF00F6C410EF
:103BB00087B23946AA4801F0EDFDBDE8F08170B545
:103BC0000546A849284605F081FF04D3A6492846A2
:103BD00006F07CF80ED2012400209F49091F0860DE
:103BE0009E49C1F884019C49091D08609B49C1F8A0
:103BF0008C0100E00024204670BD41F6F4209B4972
:103C000009684242914202DA4142984A116097495A
:103C10000968814201DD9549086095490968424279
:103C2000914202DA4142924A116091490968814207
:103C300001DD8F49086070472DE9FC5F8D480190D8
:103C40004FF07C5000908C4909688C4A12681144EE
:103C5000084605F00FFF8A4908608A48006805F0A9
:103C60003DFD0646884A894B05F05EFA044605F09C
:103C700009F8844908608248006805F02FFD8046F5
:103C8000814A834B05F050FA04460D467D48006892
:103C900005F024FD064622462B4605F025F882460F
:103CA00004F0F0FF77490860084601687948006829
:103CB00005F040FD7749086077480168754800685D
:103CC00006F036F87349086074497248006805F0D8
:103CD000FDFF02D271486F49086071496D48006864
:103CE00005F0F4FE02D26E486A49086069480099FE
:103CF000006805F01FFF044662480199006805F05E
:103D000019FF0546214605F015FD6649086008467D
:103D1000006805F073FEBDE8FC9F2DE9F84F0546ED
:103D20000C46614E614F0021284606F001F80090D4
:103D30003046009905F0FEFE82463946204605F0E1
:103D4000F9FE8346514605F0F5FC814605F056FE26
:103D500080464046BDE8F88F10B5FEF796FD544802
:103D60000068544908605449B1F9020005F082FE28
:103D70005249086010BD10B50121514801F039FDCC
:103D8000002867D001214E4801F044FD4D480068ED
:103D9000401C4C4908604C480078401C4A49087057
:103DA0004A480078401C4949087047480078032871
:103DB0003ED10020444908704548007808B90120E8
:103DC00000E000204249087008460078012803D12D
:103DD000FFF7C2FF002010BDFFF7BEFF37480168A4
:103DE00034480068FFF799FF3A49086023480168A2
:103DF00021480068FFF720FF374908603548006810
:103E00000968401A1949086032480068324909684F
:103E1000401A17490860FFF7F0FE26480068FFF7D0
:103E2000CEFE28B91248016810480068FFF789FEE5
:103E3000264800780C280DD1002024490870022063
:103E400000F080F940420C490860032000F07AF944
:103E50000A4908600020BEE7840122420000224295
:103E600000340140000020C2000020421C0000205D
:103E7000200000200000B4421400002018000020A0
:103E8000B0000020B40000209A9999999999E93FCF
:103E90009999C93FBC000020B800002000401C4692
:103EA00000401CC6AC00002000004844CDCC4C4073
:103EB0007400002024000020800000202800002042
:103EC000002C0140C0000020A7000020A800002016
:103ED000A4000020980000209C00002008B50121CB
:103EE000480300F029FD0121102000F025FD1820D5
:103EF0008DF8030003208DF80200C020ADF800000B
:103F00006946394800F05CFA0121102000F014FDE8
:103F100010208DF8030003208DF802000F20ADF86B
:103F200000006946304800F04BFA0F212E4800F09F
:103F3000F6FA08BD30B587B005460C46ADF814500A
:103F4000ADF810400020ADF81600ADF8120004A93D
:103F5000264800F029FE684601F05BF96020ADF8C4
:103F600000000120ADF802000020ADF80600ADF819
:103F7000080069461D4800F054FE0120ADF802001B
:103F800069461A4800F08FFE0821184801F098FA97
:103F90000821164801F09DFA0121144801F060FA49
:103FA00012484430008840F40040104944310880F1
:103FB00001210E4801F054F907B030BD70B5044638
:103FC0000D46FFF78BFF29462046FFF7B3FF70BD74
:103FD00070B504460D462146044801F0D9FB294638
:103FE000024801F0D7FB70BD0010014000340140D1
:103FF0001FB50121092000F09FFC04208DF80F005F
:1040000003208DF80E003020ADF80C0003A95B48AA
:1040100000F0D6F93021594800F081FA01215848C2
:1040200000F09FFA0121022000F093FC4FF6FE7091
:10403000ADF804000020ADF80000ADF80600ADF8C2
:10404000020069464F4800F0AFFD4E481830008826
:1040500040F001004B49183108800846008840F4C0
:104060008070088047482030008846492031088009
:1040700008460088088043480830008840F0030064
:104080004049083108803F48008840F001003D4920
:1040900008801FBD1FB50121092000F04DFC042040
:1040A0008DF80F0003208DF80E000820ADF80C00ED
:1040B00003A9324800F084F90121042000F03CFCFF
:1040C0000121314800F04DFA4FF40040ADF80C00EA
:1040D00003A92E4800F074F901212D4800F041FA9F
:1040E0000121084600F035FC4FF6FE70ADF80400E3
:1040F0000020ADF80000ADF80600ADF802006946FA
:104100004FF0804000F050FD4FF08040008B40F0B9
:1041100001004FF0804108830846008B40F4807016
:1041200008830846008C08840846008C08840846EA
:10413000008940F0030008810846008840F0010033
:1041400008801FBD0146022902D0032912D108E0D0
:104150004FF08042928C10B200224FF080439A843C
:104160000AE0084A2432128810B20022054B243398
:104170001A8001E0002000BF00BF7047000C014022
:1041800000081A000004004000023000000801404E
:10419000000118003EB504460121C80200F0CCFB26
:1041A0000F4800F02DFCADF804404720ADF80000AA
:1041B0000020ADF80600ADF802006946084800F09E
:1041C000F3FC0121064801F011FB012211460448CD
:1041D00001F061F80121024801F042F83EBD000003
:1041E000002C01400948804709480047FEE7FEE7E8
:1041F000FEE7FEE7FEE7FEE7FEE7FEE7FEE7FEE797
:1042000004480549054A064B704700003B03000877
:1042100031010008600300206009002060050020D3
:104220006005002031490143314A1160704770B583
:10423000002100230F22C47804B32D4C246804F419
:10424000E064C4F5E064210AC1F10403CA40447883
:1042500004FA03F18478144021430901254C0678BF
:10426000A155047804F01F050124AC4005786D11B8
:10427000AD0005F1E025C5F8004109E0047804F03F
:104280001F050124AC401C4D0678761145F82640E8
:1042900070BD1A4A0A400243154B1B1F1A60704733
:1042A00039B1134A121D12680243114B1B1D1A60CB
:1042B00006E00F4A121D126882430D4B1B1D1A6047
:1042C0007047042808D14FF0E021096941F004014A
:1042D0004FF0E022116107E04FF0E021096921F081
:1042E00004014FF0E0221161704700000000FA0560
:1042F0000CED00E000E400E080E100E080FFFF1F43
:1043000010B50446CC48844208D10121042000F0B5
:104310002DFB0021042000F029FB46E0C748844221
:1043200008D10121082000F021FB0021082000F025
:104330001DFB3AE0C248844208D10121102000F060
:1043400015FB0021102000F011FB2EE0BD48844237
:1043500008D10121202000F009FB0021202000F0DD
:1043600005FB22E0B848844208D10121402000F03A
:10437000FDFA0021402000F0F9FA16E0B34884422B
:1043800008D10121802000F0F1FA0021802000F006
:10439000EDFA0AE0AE48844207D10121801500F011
:1043A000E5FA0021A01500F0E1FA10BD10B50121D9
:1043B000084600F0DBFA0021012000F0D7FA10BD1A
:1043C0002DE9F041024600250026002000230024AC
:1043D000002791F803C00CF00F0591F803C00CF012
:1043E000100CBCF1000F03D091F802C04CEA050597
:1043F00091F800C0BCF1000F31D0146800202BE010
:104400004FF0010C0CFA00F3B1F800C00CEA0306FF
:104410009E4220D183004FF00F0C0CFA03F7BC43EF
:1044200005FA03FC4CEA040491F803C0BCF1280F20
:1044300006D14FF0010C0CFA00FCC2F814C00AE0DF
:1044400091F803C0BCF1480F05D14FF0010C0CFAF4
:1044500000FCC2F810C0401C0828D1D31460B1F889
:1044600000C0BCF1FF0F34DD546800202EE000F1E5
:10447000080C4FF0010808FA0CF3B1F800C00CEA80
:1044800003069E4221D183004FF00F0C0CFA03F774
:10449000BC4305FA03FC4CEA040491F803C0BCF1E8
:1044A000280F05D100F1080C08FA0CF8C2F81480A6
:1044B00091F803C0BCF1480F07D100F1080C4FF090
:1044C000010808FA0CF8C2F81080401C0828CED366
:1044D0005460BDE8F0814FF6FF71018002218170C8
:1044E0000421C17070470246002093680B400BB155
:1044F000012000E0002070470146886880B27047C4
:1045000002460020D3680B400BB1012000E00020E0
:1045100070470146C86880B27047016170474161C9
:1045200070470AB1016100E041617047C1607047A6
:104530004FF480320A4382618161826182698269BB
:10454000704702460020434B18684FF680731840AE
:1045500040EA021008433F4B186070473E49C8616B
:104560007047F0B50A46002300240021002500F022
:104570000046B6F1004F02D1364EF16901E0354EEA
:104580007168C0F3034583B200F44016B6F5401FCE
:1045900008D121F070612F4E766826F070662D4F9D
:1045A0007E6012E000F48016B6F5801F06D1032667
:1045B00006FA05F4A14341F0706106E0460D3601AC
:1045C00003FA06F6B14341F0706122B1460D36019F
:1045D00003FA06F6314300F00046B6F1004F02D16F
:1045E0001C4EF16101E01B4E7160F0BD30B5002240
:1045F0008B071C0F0F2303FA04F2164B08338C10A1
:1046000053F824309343134C08348D1044F825306C
:1046100023468C1053F824308C07240F00FA04F43E
:1046200023430C4C08348D1044F8253030BD0A4922
:10463000DC3108607047000000080140000C0140B8
:10464000001001400014014000180140001C01400E
:10465000002001400000014000002042DF480068C7
:1046600040F00100DD49086008464068DC49084028
:10467000DA49486008460068DA490840D7490860C6
:104680000846006820F4802008600846406820F44E
:10469000FE0048604FF41F0088607047CF490968EA
:1046A00021F48031CD4A11601146096821F480213E
:1046B0001160B0F5803F03D0B0F5802F0ED106E039
:1046C000C649096841F48031C44A116007E0C34912
:1046D000096841F4A021C14A116000E000BF00BF99
:1046E000704710B501460022002300204A11012A1C
:1046F00002D1BA4C236806E0022A02D1B74C236AE1
:1047000001E0B64C636A01F01F02012494401C4092
:104710000CB1012000E0002010BD38B50020009051
:104720000024002500BF3120FFF7DBFF054600987D
:10473000401C00900098B0F5A06F01D0002DF2D081
:104740003120FFF7CEFF08B1012400E0002420460D
:1047500038BD01460020A14A106820F0F80040EA68
:10476000C10010607047A0490860704702460020F1
:104770009A4B586820F47C1042EA01031843974B87
:104780005860704798490866704701460020934A70
:10479000506820F003000843506070478F4840681D
:1047A00000F00C007047014600208C4A506820F051
:1047B000F00008435060704701460020874A506867
:1047C00020F4E06008435060704701460020834AAF
:1047D000506820F4605040EAC1005060704729B131
:1047E0007E4A527A02437D4B5A7204E07B4A527AE7
:1047F00082437A4B5A7270477B49D83108607047C0
:1048000001460020754A506820F44040084350603B
:1048100070470021714A20321170704A82F82010CE
:10482000012802D004280AD104E001216B4A203279
:10483000117005E00521694A2032117000E000BFC7
:1048400000BF70476949086070476449096A0143BD
:10485000624A11627047654944390860704730B553
:1048600000210022002400235C4D6D6805F00C013E
:1048700021B1042905D0082923D105E05C4D05604C
:1048800022E05B4D05601FE0544D6D6805F4701229
:10489000524D6D6805F48034022505EB92421CB937
:1048A000544D554305600BE04C4D6D6805F40035E3
:1048B0001DB1504D5543056002E04D4D5543056017
:1048C00002E04B4D056000BF00BF444D6D6805F030
:1048D000F0010909484D6B5C0568DD4045603F4DBE
:1048E0006D6805F4E061090A434D6B5C4568DD4085
:1048F00085603A4D6D6805F46051C90A3E4D6B5CA8
:104900004568DD40C560354D6D6805F44041890B53
:104910003A4D6B5CC568B5FBF3F5056130BD29B157
:104920002E4A526902432D4B5A6104E02B4A5269C8
:1049300082432A4B5A61704729B1284A926902433F
:10494000264B9A6104E0254A92698243234B9A617F
:10495000704729B1214AD2690243204BDA6104E051
:104960001E4AD26982431D4BDA61704729B11B4A46
:10497000D2680243194BDA6004E0184AD2688243D5
:10498000164BDA60704729B1144A12690243134B7F
:104990001A6104E0114A12698243104B1A61704790
:1049A00012494039086070470F49C86470470B4985
:1049B000C87170470948406A40F0807007494862F2
:1049C000704701460020054A92680A400AB101205A
:1049D00000E00020704701498872704700100240D3
:1049E0000000FFF8FFFFF6FE000042428004424252
:1049F00000127A0000093D00C4000020D40000200D
:104A000010B50446FE48844208D10121C014FFF7C6
:104A1000ADFF0021E014FFF7A9FFC4E0B4F1804F1F
:104A200008D101210846FFF7AEFF00210120FFF762
:104A3000AAFFB8E0F348844208D101210220FFF721
:104A4000A2FF00210220FFF79EFFACE0EE48844267
:104A500008D101210420FFF796FF00210420FFF771
:104A600092FFA0E0E948844208D101210820FFF725
:104A70008AFF00210820FFF786FF94E0E448844283
:104A800008D101211020FFF77EFF00211020FFF741
:104A90007AFF88E0DF48844208D101212020FFF717
:104AA00072FF00212020FFF76EFF7CE0DA4884428D
:104AB00008D101214014FFF759FF00216014FFF7CE
:104AC00055FF70E0D548844209D10121C804FFF7A1
:104AD0004DFF00214FF40020FFF748FF63E0D0486E
:104AE000844209D101210805FFF740FF00214FF45E
:104AF0008010FFF73BFF56E0CA48844209D10121EC
:104B00004805FFF733FF00214FF40010FFF72EFF99
:104B100049E0C548844208D101214020FFF733FF16
:104B200000214020FFF72FFF3DE0C048844208D11C
:104B300001218020FFF727FF00218020FFF723FFBE
:104B400031E0BB48844208D101218015FFF71BFFEB
:104B50000021A015FFF717FF25E0B648844209D1D0
:104B600001210804FFF702FF00214FF48030FFF716
:104B7000FDFE18E0B048844209D101214804FFF746
:104B8000F5FE00214FF40030FFF7F0FE0BE0AB48DC
:104B9000844208D101218804FFF7E8FE00214FF488
:104BA0008020FFF7E3FE10BD00220288944B98425C
:104BB0000ED0994B98420BD0B0F1804F08D0914B5A
:104BC000984205D0904B984202D0904B984204D125
:104BD0004FF68F731A404B881A438D4B984207D07B
:104BE0008C4B984204D04FF6FF431A40CB881A43AF
:104BF00002808B8883850B880385814B98420BD07C
:104C0000854B984208D08B4B984205D08A4B9842EE
:104C100002D08A4B984201D10B7A0386012383820A
:104C2000704770B5002400220023058C4FF6FE76F5
:104C300035400584028C8388048B4FF68F752C4099
:104C4000B51E2C400D882C43751E2A400D892A4321
:104C50004D882A436A4DA8420BD06F4DA84208D018
:104C6000744DA84205D0744DA84202D0734DA8429D
:104C700013D14FF6F7752A404D892A434FF6FB753D
:104C80002A408D882A434FF6FF652B404FF6FF558B
:104C90002B408D892B43CD892B4383800483CD8882
:104CA0008586028470BD70B5002400220023058C27
:104CB0004FF6EF7635400584028C8388048B48F6E6
:104CC000FF752C404FF6FF452C400D884FF6FF76C0
:104CD00006EA05252C434FF6DF752A400D8906EAC2
:104CE00005152A434D8806EA05152A43444DA84276
:104CF00002D0494DA8421DD14FF67F752A404D89FB
:104D00004FF6FF7606EA05152A434FF6BF752A408F
:104D10008D8806EA05152A434FF6FF352B404FF2E2
:104D2000FF752B408D8906EA85052B43CD8906EA60
:104D300085052B4383800483CD880587028470BD5D
:104D400070B5002400220023058C4FF6FF66354025
:104D50000584028C8388848B4FF68F752C404FF628
:104D6000FC752C400D882C434FF6FF552A400D89C9
:104D70004FF6FF7606EA05252A434D8806EA052503
:104D80002A431F4DA84202D0234DA8421DD14FF205
:104D9000FF752A404D894FF6FF7606EA05252A431E
:104DA0004FF6FF352A408D8806EA05252A434EF640
:104DB000FF752B404DF6FF752B408D8906EA0515D2
:104DC0002B43CD8906EA05152B4383808483CD8848
:104DD0008587028470BD70B5002200230024058CF5
:104DE0004EF6FF7635400584038C8488828B48F626
:104DF000FF752A404FF6FF452A400D8820E000004D
:104E0000002C01400004004000080040000C00405D
:104E1000001000400014004000340140004C0140EC
:104E2000005001400054014000180040001C0040A8
:104E30000020004000400140004401400048014083
:104E40004FF6FF7606EA05252A434DF6FF752B40FF
:104E50000D8906EA05352B434D8806EA05352B43B7
:104E6000FA4DA84202D0FA4DA84208D14BF6FF7580
:104E70002C408D894FF6FF7606EA85152C438480F9
:104E80008283CD88A0F84050038470BD828B4FF29E
:104E9000FF331A408283828B4FF6FF7303EA0123AC
:104EA0001A4382837047F0B50C4615460022002154
:104EB0000026078C4EF6FF7C07EA0C070784828BDE
:104EC000018C4FF6FF7707EA043640F6FF473A4079
:104ED0004FF6FF7707EA05273A434FF6FF7707EAD1
:104EE00003373A43D94FB8420ED0D94FB8420BD00E
:104EF000B0F1804F08D0D74FB84205D0D64FB84256
:104F000002D0D64FB84206D14DF6FF77394046F46D
:104F10008057394305E047F6FF57394044F480573E
:104F2000394382830184F0BD828B4FF6F3731A40BC
:104F30008283828B0A4382837047F0B50C46154604
:104F4000002200210026078C4FF6FF6C07EA0C07B1
:104F50000784828B018C4FF6FF7707EA04264FF611
:104F60000C773A404FF6FF7707EA03172F433A438F
:104F7000B64FB8420ED0B64FB8420BD0B0F1804F0A
:104F800008D0B44FB84205D0B34FB84202D0B34FA7
:104F9000B84206D14FF6FF57394046F4807739437F
:104FA00005E04FF2FF57394044F48077394382835C
:104FB0000184F0BD028B4FF2FF331A400283028B53
:104FC0004FF6FF7303EA01231A4302837047F0B5DB
:104FD0000C461546002200210026078C4FF6EF7C78
:104FE00007EA0C070784028B018C4FF6FF7707EA6C
:104FF000041640F6FF473A404FF6FF7707EA0337BB
:105000003A434FF6FF7707EA05273A438F4FB842F6
:105010000ED08F4FB8420BD0B0F1804F08D08D4FDB
:10502000B84205D08C4FB84202D08C4FB84206D15E
:105030004FF6DF77394046F01007394305E04FF669
:105040005F77394044F01007394302830184F0BD93
:10505000028B4FF6F3731A400283028B0A430283DA
:105060007047F0B50C46154600220021068C4FF61D
:10507000FE773E400684028B018C4FF60C76324060
:105080007E1C06EA03162E433243704EB0420ED009
:105090006F4EB0420BD0B0F1804F08D06D4EB04291
:1050A00005D06D4EB04202D06C4EB04206D14FF6E4
:1050B000FD76314044F00106314305E04FF6F576C8
:1050C000314044F00106314302830184F0BD70B5E4
:1050D00005460C465D4885420ED05D4885420BD0A2
:1050E000B5F1804F08D05B48854205D05A488542CB
:1050F00002D05A48854200D100E000BF208850B954
:105100002389A28861882846FFF7ABFFE1882846FB
:10511000FFF79EFF25E0208804280AD12389A28872
:1051200061882846FFF753FFE1882846FFF742FFD2
:1051300017E0208808280AD12389A2886188284698
:10514000FFF7FBFEE1882846FFF7EEFE09E0238922
:10515000A28861882846FFF7A6FEE1882846FFF767
:1051600095FE70BD2DE9F04105460C46002601274D
:10517000608808B9022600E00026A088012801D135
:10518000022700E001272088A0B92389A28861882E
:105190002846FFF766FFE1882846FFF759FF238975
:1051A0003A4631462846FFF712FFE1882846FFF7C6
:1051B00001FF13E02389A28861882846FFF707FFD3
:1051C000E1882846FFF7F6FE23893A46314628460D
:1051D000FFF747FFE1882846FFF73AFFBDE8F08177
:1051E0000A884B881A438B881A43CB881A430B8949
:1051F0001A434B891A438B891A43A0F844207047FD
:105200004FF6FF71818000210180C18041800172D1
:1052100070470021018041808180C18001814181EE
:105220008181C181704700210180418001218180FD
:105230000021C1800181704700210180418081806F
:10524000C18001814181818170470000002C0140B3
:10525000003401400004004000080040000C004001
:1052600021B1028842F00102028004E002884FF678
:10527000FE731A400280704731B1B0F8442042F406
:105280000042A0F8442005E0B0F84420C2F30E022A
:10529000A0F8442070471AB183890B43838102E050
:1052A00083898B43838170478182704741EA02037F
:1052B000A0F8483070471AB183890B43838102E01C
:1052C00083898B438381704701894FF6F8721140BF
:1052D000018170470A46002101894FF68F731940FA
:1052E00011430181704730B504460D4629462046DA
:1052F000FFF7F0FF208940F00700208130BD2DE945
:10530000F04104460D4616461F46602D06D13B4629
:10531000012231462046FFF75AFE05E03B460122B6
:1053200031462046FFF79DFE29462046FFF7D2FF73
:10533000208940F007002081BDE8F08130B50C469F
:1053400000210189C9B24FF6FF7505EA032515430F
:1053500025432943018130BD2DE9F04105460E4624
:1053600017469846002443463A4631462846FFF7FA
:10537000E5FF2C894FF6F870044044F007044FF61F
:105380008F70044044F070042C81BDE8F081F0B5CA
:1053900004460D4616461F463B46324629462046E1
:1053A000FFF7CCFF208940F480402081F0BD0185CB
:1053B000828270470A46002101884FF68F73194098
:1053C000114301807047F0B50C4615461E4600217A
:1053D000002200230189028B038C4FF6F8773940B5
:1053E00021434FF6FC473A4040F201173A434FF64B
:1053F000DD773B404FF6FF7707EA06172F433B4325
:10540000018102830384F0BD0A460021018B4FF61F
:105410008F7319401143018370470A460021018BA5
:1054200048F6FF7319404FF6FF7303EA022319434E
:10543000018370470A460021818B4FF68F73194014
:105440001143818370470A460021818B48F6FF7320
:1054500019404FF6FF7303EA022319438183704713
:1054600021B1028842F08002028004E002884FF6F7
:105470007F731A400280704721B1828842F0040293
:10548000828004E082884FF6FB731A408280704766
:1054900021B1828842F00802828004E082884FF6BF
:1054A000F7731A408280704721B1828842F001026E
:1054B000828004E082884FF6FE731A408280704733
:1054C0000A460021018B4FF6F773194011430183FF
:1054D00070470A460021018B4FF2FF7319404FF6C7
:1054E000FF7303EA02231943018370470A46002130
:1054F000818B4FF6F77319401143818370470A4639
:105500000021818B4FF2FF7319404FF6FF7303EABE
:1055100002231943818370470A460021018B4FF60D
:10552000FB7319401143018370470A460021018B28
:105530004FF6FF3319404FF6FF7303EA0223194376
:10554000018370470A460021818B4FF6FB73194097
:105550001143818370470A460021818B4FF6FF3348
:1055600019404FF6FF7303EA022319438183704702
:105570000A460021018B4FF67F73194011430183C6
:1055800070470A460021018BC1F30E014FF6FF73ED
:1055900003EA02231943018370470A460021818BE5
:1055A0004FF67F7319401143818370470A460021EB
:1055B000818BC1F30E014FF6FF7303EA02231943F7
:1055C000818370470A460021018C4FF6FD73194014
:1055D0001143018470470A460021018C4FF6F7738E
:1055E00019401143018470470A460021018C4FF68F
:1055F000DF7319404FF6FF7303EA02131943018466
:1056000070470A460021018C4FF67F7319404FF610
:10561000FF7303EA02131943018470470A4600210D
:10562000018C4FF6FF5319404FF6FF7303EA022334
:105630001943018470470A460021018C4FF2FF7321
:1056400019404FF6FF7303EA0223194301847047A0
:105650000A460021018C4DF6FF7319404FF6FF7387
:1056600003EA023319430184704730B50023012453
:105670008C40A3B2048C9C430484048C02FA01F590
:10568000ADB22C43048430BD30B5002304248C40DB
:10569000A3B2048C9C430484048C02FA01F5ADB2DD
:1056A0002C43048430BD70B5034600200024184606
:1056B000183001258D40ACB21D8CA5431D8409B165
:1056C000082909D100EB6100056825F07005056027
:1056D0000568154305600EE00D1FC5F34E0528440F
:1056E000056825F4E045056005684FF6FF7606EA93
:1056F00002263543056070BD21B1028842F00202E6
:10570000028004E002884FF6FD731A400280704761
:1057100021B1028842F00402028004E002884FF6C0
:10572000FB731A400280704721B1828842F08002E8
:10573000828004E082884FF67F731A40828070472F
:1057400002884FF6F7731A40028002880A430280EB
:10575000704782884FF68F731A40828082880A438E
:105760008280704702894FF6F8731A4002810289DD
:105770000A430281704702894FF67F731A40028103
:1057800002890A430281704781847047818570478E
:10579000818670470187704781877047A0F8401065
:1057A000704702884FF6FF431A40028002880A437E
:1057B000028070470146888E70470146088F704707
:1057C0000146888F70470146B1F840007047014696
:1057D000888C70470146088D704702460020138A66
:1057E0000B400BB1012000E000207047CA43028249
:1057F000704730B50246002000230024158A05EAD0
:105800000103958905EA010413B10CB1012000E000
:10581000002030BDCA4302827047000010B5044624
:10582000FB48844209D101218803FFF79FF800213A
:105830004FF48040FFF79AF832E0F648844209D1ED
:1058400001214804FFF79FF800214FF40030FFF7D3
:105850009AF825E0F048844209D101218804FFF735
:1058600092F800214FF48020FFF78DF818E0EB4804
:10587000844209D10121C804FFF785F800214FF4C3
:105880000020FFF780F80BE0E548844208D10121B1
:105890000805FFF778F800214FF48010FFF773F840
:1058A00010BD2DE9F04786B005460E460024A246FD
:1058B00000BFA1460027B08900B100BF2F462C8A47
:1058C0004CF6FF700440F08804432C82AC894EF6FD
:1058D000F3100440B08831890843718908430443B8
:1058E000AC81AC8A4FF6FF400440B0890443AC82DF
:1058F00001A8FEF7B4FFC648874202D1DDF810A028
:1059000001E0DDF80CA0A88900F4004040B10AEBEA
:10591000CA0000EB0A1031684900B0FBF1F807E05B
:105920000AEBCA0000EB0A1031688900B0FBF1F8FD
:105930006420B8FBF0F004012009642101FB108908
:10594000A88900F4004040B1322000EBC900B0FB50
:10595000F1F000F00700044308E0322000EB0910EA
:105960006421B0FBF1F000F00F0004432C8106B07D
:10597000BDE8F0874FF41651016000218180C1809D
:1059800001810C21418100218181704710B50246BF
:105990000020108A4FF2FF0318400B884C882343E5
:1059A0008C882343CC8823431843108210BD0021E8
:1059B000018041808180C180704721B1828942F499
:1059C0000052828104E082894DF6FF731A40828181
:1059D0007047F0B50346002400260025002040F65D
:1059E0006A17B94200D100BF1846C1F3421401F052
:1059F0001F06012707FA06F5012C01D10C3004E03F
:105A0000022C01D1103000E014301AB107682F4386
:105A1000076002E00768AF430760F0BD1AB1838AF0
:105A20000B43838202E0838A8B4383827047028A1E
:105A30004FF6F0731A400282028A0A4302827047CC
:105A400082894FF2FF731A40828182890A438281E0
:105A5000704721B1828942F00202828104E082898A
:105A60004FF6FD731A4082817047028A4FF6DF734A
:105A70001A400282028A0A430282704721B1028AD6
:105A800042F48042028204E0028A4BF6FF731A401D
:105A900002827047C1F308028280704701468888FD
:105AA000C0F308007047818941F00101818170478E
:105AB000028BD2B20283028B42EA01220283704738
:105AC000028B02F47F420283028B0A4302837047F7
:105AD00021B1828A42F02002828204E0828A4FF65B
